{
  "_format": "hh-sol-artifact-1",
  "contractName": "DecentralAirbnb",
  "sourceName": "contracts/DecentralAirbnb.sol",
  "abi": [
    {
      "inputs": [
        {
          "internalType": "uint256",
          "name": "_listingFee",
          "type": "uint256"
        },
        {
          "internalType": "address",
          "name": "_priceFeedAddress",
          "type": "address"
        }
      ],
      "stateMutability": "nonpayable",
      "type": "constructor"
    },
    {
      "inputs": [],
      "name": "DecentralAirbnb__AlreadyBooked",
      "type": "error"
    },
    {
      "inputs": [],
      "name": "DecentralAirbnb__InsufficientAmount",
      "type": "error"
    },
    {
      "inputs": [],
      "name": "DecentralAirbnb__InvalidBookingPeriod",
      "type": "error"
    },
    {
      "inputs": [],
      "name": "DecentralAirbnb__InvalidFee",
      "type": "error"
    },
    {
      "inputs": [],
      "name": "DecentralAirbnb__InvalidRentalId",
      "type": "error"
    },
    {
      "inputs": [],
      "name": "DecentralAirbnb__InvalidReviewId",
      "type": "error"
    },
    {
      "inputs": [],
      "name": "DecentralAirbnb__OnlyAdmin",
      "type": "error"
    },
    {
      "inputs": [],
      "name": "DecentralAirbnb__TransferFailed",
      "type": "error"
    },
    {
      "anonymous": false,
      "inputs": [
        {
          "indexed": false,
          "internalType": "uint256",
          "name": "rentalId",
          "type": "uint256"
        },
        {
          "indexed": false,
          "internalType": "address",
          "name": "renter",
          "type": "address"
        },
        {
          "indexed": false,
          "internalType": "uint256",
          "name": "bookDateStart",
          "type": "uint256"
        },
        {
          "indexed": false,
          "internalType": "uint256",
          "name": "bookDateEnd",
          "type": "uint256"
        },
        {
          "indexed": false,
          "internalType": "uint256",
          "name": "timestamp",
          "type": "uint256"
        }
      ],
      "name": "NewBookAdded",
      "type": "event"
    },
    {
      "anonymous": false,
      "inputs": [
        {
          "indexed": false,
          "internalType": "uint256",
          "name": "id",
          "type": "uint256"
        },
        {
          "indexed": false,
          "internalType": "address",
          "name": "owner",
          "type": "address"
        },
        {
          "indexed": false,
          "internalType": "string",
          "name": "name",
          "type": "string"
        },
        {
          "indexed": false,
          "internalType": "string",
          "name": "city",
          "type": "string"
        },
        {
          "indexed": false,
          "internalType": "string",
          "name": "latitude",
          "type": "string"
        },
        {
          "indexed": false,
          "internalType": "string",
          "name": "longitude",
          "type": "string"
        },
        {
          "indexed": false,
          "internalType": "string",
          "name": "description",
          "type": "string"
        },
        {
          "indexed": false,
          "internalType": "string",
          "name": "imgUrl",
          "type": "string"
        },
        {
          "indexed": false,
          "internalType": "uint256",
          "name": "maxGuests",
          "type": "uint256"
        },
        {
          "indexed": false,
          "internalType": "uint256",
          "name": "pricePerDay",
          "type": "uint256"
        },
        {
          "indexed": false,
          "internalType": "uint256",
          "name": "timestamp",
          "type": "uint256"
        }
      ],
      "name": "NewRentalCreated",
      "type": "event"
    },
    {
      "anonymous": false,
      "inputs": [
        {
          "indexed": false,
          "internalType": "uint256",
          "name": "reviewId",
          "type": "uint256"
        },
        {
          "indexed": false,
          "internalType": "uint256",
          "name": "rentalId",
          "type": "uint256"
        },
        {
          "indexed": false,
          "internalType": "address",
          "name": "com_owner",
          "type": "address"
        },
        {
          "indexed": false,
          "internalType": "string",
          "name": "review",
          "type": "string"
        },
        {
          "indexed": false,
          "internalType": "uint256",
          "name": "rating",
          "type": "uint256"
        },
        {
          "indexed": false,
          "internalType": "uint256",
          "name": "timestamp",
          "type": "uint256"
        }
      ],
      "name": "NewReviewAdded",
      "type": "event"
    },
    {
      "inputs": [
        {
          "internalType": "string",
          "name": "_name",
          "type": "string"
        },
        {
          "internalType": "string",
          "name": "_city",
          "type": "string"
        },
        {
          "internalType": "string",
          "name": "_latitude",
          "type": "string"
        },
        {
          "internalType": "string",
          "name": "_longitude",
          "type": "string"
        },
        {
          "internalType": "string",
          "name": "_description",
          "type": "string"
        },
        {
          "internalType": "string",
          "name": "_imgUrl",
          "type": "string"
        },
        {
          "internalType": "uint256",
          "name": "_maxGuests",
          "type": "uint256"
        },
        {
          "internalType": "uint256",
          "name": "_pricePerDay",
          "type": "uint256"
        }
      ],
      "name": "addRental",
      "outputs": [],
      "stateMutability": "payable",
      "type": "function"
    },
    {
      "inputs": [
        {
          "internalType": "uint256",
          "name": "rentalId",
          "type": "uint256"
        },
        {
          "internalType": "string",
          "name": "review",
          "type": "string"
        },
        {
          "internalType": "uint256",
          "name": "rating",
          "type": "uint256"
        }
      ],
      "name": "addReview",
      "outputs": [],
      "stateMutability": "nonpayable",
      "type": "function"
    },
    {
      "inputs": [],
      "name": "admin",
      "outputs": [
        {
          "internalType": "address",
          "name": "",
          "type": "address"
        }
      ],
      "stateMutability": "view",
      "type": "function"
    },
    {
      "inputs": [
        {
          "internalType": "uint256",
          "name": "_id",
          "type": "uint256"
        },
        {
          "internalType": "uint256",
          "name": "_fromDateTimestamp",
          "type": "uint256"
        },
        {
          "internalType": "uint256",
          "name": "_toDateTimestamp",
          "type": "uint256"
        }
      ],
      "name": "bookDates",
      "outputs": [],
      "stateMutability": "payable",
      "type": "function"
    },
    {
      "inputs": [
        {
          "internalType": "uint256",
          "name": "_newFee",
          "type": "uint256"
        }
      ],
      "name": "changeListingFee",
      "outputs": [],
      "stateMutability": "nonpayable",
      "type": "function"
    },
    {
      "inputs": [
        {
          "internalType": "uint256",
          "name": "amountInUSD",
          "type": "uint256"
        }
      ],
      "name": "convertFromUSD",
      "outputs": [
        {
          "internalType": "uint256",
          "name": "",
          "type": "uint256"
        }
      ],
      "stateMutability": "view",
      "type": "function"
    },
    {
      "inputs": [],
      "name": "getPrice",
      "outputs": [
        {
          "internalType": "uint256",
          "name": "",
          "type": "uint256"
        },
        {
          "internalType": "uint256",
          "name": "",
          "type": "uint256"
        }
      ],
      "stateMutability": "view",
      "type": "function"
    },
    {
      "inputs": [
        {
          "internalType": "uint256",
          "name": "_id",
          "type": "uint256"
        }
      ],
      "name": "getRentalBookings",
      "outputs": [
        {
          "components": [
            {
              "internalType": "address",
              "name": "renter",
              "type": "address"
            },
            {
              "internalType": "uint256",
              "name": "fromTimestamp",
              "type": "uint256"
            },
            {
              "internalType": "uint256",
              "name": "toTimestamp",
              "type": "uint256"
            }
          ],
          "internalType": "struct DecentralAirbnb.Booking[]",
          "name": "",
          "type": "tuple[]"
        }
      ],
      "stateMutability": "view",
      "type": "function"
    },
    {
      "inputs": [
        {
          "internalType": "uint256",
          "name": "_id",
          "type": "uint256"
        }
      ],
      "name": "getRentalInfo",
      "outputs": [
        {
          "components": [
            {
              "internalType": "uint256",
              "name": "id",
              "type": "uint256"
            },
            {
              "internalType": "address",
              "name": "owner",
              "type": "address"
            },
            {
              "internalType": "string",
              "name": "name",
              "type": "string"
            },
            {
              "internalType": "string",
              "name": "city",
              "type": "string"
            },
            {
              "internalType": "string",
              "name": "latitude",
              "type": "string"
            },
            {
              "internalType": "string",
              "name": "longitude",
              "type": "string"
            },
            {
              "internalType": "string",
              "name": "description",
              "type": "string"
            },
            {
              "internalType": "string",
              "name": "imgUrl",
              "type": "string"
            },
            {
              "internalType": "uint256",
              "name": "maxNumberOfGuests",
              "type": "uint256"
            },
            {
              "internalType": "uint256",
              "name": "pricePerDay",
              "type": "uint256"
            }
          ],
          "internalType": "struct DecentralAirbnb.RentalInfo",
          "name": "",
          "type": "tuple"
        }
      ],
      "stateMutability": "view",
      "type": "function"
    },
    {
      "inputs": [],
      "name": "getRentals",
      "outputs": [
        {
          "components": [
            {
              "internalType": "uint256",
              "name": "id",
              "type": "uint256"
            },
            {
              "internalType": "address",
              "name": "owner",
              "type": "address"
            },
            {
              "internalType": "string",
              "name": "name",
              "type": "string"
            },
            {
              "internalType": "string",
              "name": "city",
              "type": "string"
            },
            {
              "internalType": "string",
              "name": "latitude",
              "type": "string"
            },
            {
              "internalType": "string",
              "name": "longitude",
              "type": "string"
            },
            {
              "internalType": "string",
              "name": "description",
              "type": "string"
            },
            {
              "internalType": "string",
              "name": "imgUrl",
              "type": "string"
            },
            {
              "internalType": "uint256",
              "name": "maxNumberOfGuests",
              "type": "uint256"
            },
            {
              "internalType": "uint256",
              "name": "pricePerDay",
              "type": "uint256"
            }
          ],
          "internalType": "struct DecentralAirbnb.RentalInfo[]",
          "name": "",
          "type": "tuple[]"
        }
      ],
      "stateMutability": "view",
      "type": "function"
    },
    {
      "inputs": [
        {
          "internalType": "uint256",
          "name": "_id",
          "type": "uint256"
        }
      ],
      "name": "getReviews",
      "outputs": [
        {
          "components": [
            {
              "internalType": "uint256",
              "name": "reviewId",
              "type": "uint256"
            },
            {
              "internalType": "address",
              "name": "com_owner",
              "type": "address"
            },
            {
              "internalType": "string",
              "name": "review",
              "type": "string"
            },
            {
              "internalType": "uint256",
              "name": "rating",
              "type": "uint256"
            }
          ],
          "internalType": "struct DecentralAirbnb.ReviewInfo[]",
          "name": "",
          "type": "tuple[]"
        }
      ],
      "stateMutability": "view",
      "type": "function"
    },
    {
      "inputs": [],
      "name": "listingFee",
      "outputs": [
        {
          "internalType": "uint256",
          "name": "",
          "type": "uint256"
        }
      ],
      "stateMutability": "view",
      "type": "function"
    },
    {
      "inputs": [],
      "name": "priceFeedAddress",
      "outputs": [
        {
          "internalType": "address",
          "name": "",
          "type": "address"
        }
      ],
      "stateMutability": "view",
      "type": "function"
    },
    {
      "inputs": [
        {
          "internalType": "uint256",
          "name": "",
          "type": "uint256"
        }
      ],
      "name": "rentals",
      "outputs": [
        {
          "internalType": "uint256",
          "name": "id",
          "type": "uint256"
        },
        {
          "internalType": "address",
          "name": "owner",
          "type": "address"
        },
        {
          "internalType": "string",
          "name": "name",
          "type": "string"
        },
        {
          "internalType": "string",
          "name": "city",
          "type": "string"
        },
        {
          "internalType": "string",
          "name": "latitude",
          "type": "string"
        },
        {
          "internalType": "string",
          "name": "longitude",
          "type": "string"
        },
        {
          "internalType": "string",
          "name": "description",
          "type": "string"
        },
        {
          "internalType": "string",
          "name": "imgUrl",
          "type": "string"
        },
        {
          "internalType": "uint256",
          "name": "maxNumberOfGuests",
          "type": "uint256"
        },
        {
          "internalType": "uint256",
          "name": "pricePerDay",
          "type": "uint256"
        }
      ],
      "stateMutability": "view",
      "type": "function"
    },
    {
      "inputs": [],
      "name": "withdrawBalance",
      "outputs": [],
      "stateMutability": "nonpayable",
      "type": "function"
    }
  ],
  "bytecode": "0x60806040523480156200001157600080fd5b50604051620027cd380380620027cd83398101604081905262000034916200006b565b60018054336001600160a01b031991821617909155600292909255600080549092166001600160a01b0391909116179055620000aa565b600080604083850312156200007f57600080fd5b825160208401519092506001600160a01b03811681146200009f57600080fd5b809150509250929050565b61271380620000ba6000396000f3fe6080604052600436106100e85760003560e01c806394cdf85f1161008a5780639d4a2255116100595780639d4a22551461025d578063af94a1d11461028a578063e0abca0b146102c0578063f851a440146102f857600080fd5b806394cdf85f146101e057806395b366701461020057806398d5fdca146102205780639982aaeb1461024a57600080fd5b80635fd8c710116100c65780635fd8c7101461015a5780636a1b7ecc1461016f57806377f25f6f146101935780637eb89724146101b357600080fd5b806327dc3fbd146100ed57806346e6e5fb146101235780635ea5da2014610138575b600080fd5b3480156100f957600080fd5b5061010d610108366004611e06565b610318565b60405161011a9190611f4b565b60405180910390f35b610136610131366004611f5e565b610789565b005b34801561014457600080fd5b5061014d610d6b565b60405161011a9190611f8a565b34801561016657600080fd5b5061013661116b565b34801561017b57600080fd5b5061018560025481565b60405190815260200161011a565b34801561019f57600080fd5b506101366101ae366004611e06565b61120d565b3480156101bf57600080fd5b506101d36101ce366004611e06565b61123d565b60405161011a9190611fec565b3480156101ec57600080fd5b506101366101fb3660046120f1565b6112ec565b34801561020c57600080fd5b5061018561021b366004611e06565b6113df565b34801561022c57600080fd5b5061023561141c565b6040805192835260208301919091520161011a565b610136610258366004612141565b611508565b34801561026957600080fd5b5061027d610278366004611e06565b611746565b60405161011a919061224b565b34801561029657600080fd5b506102aa6102a5366004611e06565b611882565b60405161011a9a999897969594939291906122e2565b3480156102cc57600080fd5b506000546102e0906001600160a01b031681565b6040516001600160a01b03909116815260200161011a565b34801561030457600080fd5b506001546102e0906001600160a01b031681565b6103776040518061014001604052806000815260200160006001600160a01b0316815260200160608152602001606081526020016060815260200160608152602001606081526020016060815260200160008152602001600081525090565b81600354811061039a57604051632555990360e01b815260040160405180910390fd5b600583815481106103ad576103ad61238d565b90600052602060002090600a020160405180610140016040529081600082015481526020016001820160009054906101000a90046001600160a01b03166001600160a01b03166001600160a01b03168152602001600282018054610410906123a3565b80601f016020809104026020016040519081016040528092919081815260200182805461043c906123a3565b80156104895780601f1061045e57610100808354040283529160200191610489565b820191906000526020600020905b81548152906001019060200180831161046c57829003601f168201915b505050505081526020016003820180546104a2906123a3565b80601f01602080910402602001604051908101604052809291908181526020018280546104ce906123a3565b801561051b5780601f106104f05761010080835404028352916020019161051b565b820191906000526020600020905b8154815290600101906020018083116104fe57829003601f168201915b50505050508152602001600482018054610534906123a3565b80601f0160208091040260200160405190810160405280929190818152602001828054610560906123a3565b80156105ad5780601f10610582576101008083540402835291602001916105ad565b820191906000526020600020905b81548152906001019060200180831161059057829003601f168201915b505050505081526020016005820180546105c6906123a3565b80601f01602080910402602001604051908101604052809291908181526020018280546105f2906123a3565b801561063f5780601f106106145761010080835404028352916020019161063f565b820191906000526020600020905b81548152906001019060200180831161062257829003601f168201915b50505050508152602001600682018054610658906123a3565b80601f0160208091040260200160405190810160405280929190818152602001828054610684906123a3565b80156106d15780601f106106a6576101008083540402835291602001916106d1565b820191906000526020600020905b8154815290600101906020018083116106b457829003601f168201915b505050505081526020016007820180546106ea906123a3565b80601f0160208091040260200160405190810160405280929190818152602001828054610716906123a3565b80156107635780601f1061073857610100808354040283529160200191610763565b820191906000526020600020905b81548152906001019060200180831161074657829003601f168201915b505050505081526020016008820154815260200160098201548152505091505b50919050565b8260035481106107ac57604051632555990360e01b815260040160405180910390fd5b6000600585815481106107c1576107c161238d565b90600052602060002090600a020160405180610140016040529081600082015481526020016001820160009054906101000a90046001600160a01b03166001600160a01b03166001600160a01b03168152602001600282018054610824906123a3565b80601f0160208091040260200160405190810160405280929190818152602001828054610850906123a3565b801561089d5780601f106108725761010080835404028352916020019161089d565b820191906000526020600020905b81548152906001019060200180831161088057829003601f168201915b505050505081526020016003820180546108b6906123a3565b80601f01602080910402602001604051908101604052809291908181526020018280546108e2906123a3565b801561092f5780601f106109045761010080835404028352916020019161092f565b820191906000526020600020905b81548152906001019060200180831161091257829003601f168201915b50505050508152602001600482018054610948906123a3565b80601f0160208091040260200160405190810160405280929190818152602001828054610974906123a3565b80156109c15780601f10610996576101008083540402835291602001916109c1565b820191906000526020600020905b8154815290600101906020018083116109a457829003601f168201915b505050505081526020016005820180546109da906123a3565b80601f0160208091040260200160405190810160405280929190818152602001828054610a06906123a3565b8015610a535780601f10610a2857610100808354040283529160200191610a53565b820191906000526020600020905b815481529060010190602001808311610a3657829003601f168201915b50505050508152602001600682018054610a6c906123a3565b80601f0160208091040260200160405190810160405280929190818152602001828054610a98906123a3565b8015610ae55780601f10610aba57610100808354040283529160200191610ae5565b820191906000526020600020905b815481529060010190602001808311610ac857829003601f168201915b50505050508152602001600782018054610afe906123a3565b80601f0160208091040260200160405190810160405280929190818152602001828054610b2a906123a3565b8015610b775780601f10610b4c57610100808354040283529160200191610b77565b820191906000526020600020905b815481529060010190602001808311610b5a57829003601f168201915b5050509183525050600882015460208201526009909101546040909101529050600062015180610ba786866123ee565b610bb19190612405565b90506001811015610bd5576040516383b5c53d60e01b815260040160405180910390fd5b600081610be68461012001516113df565b610bf09190612427565b9050803414610c125760405163c7f7e3ff60e01b815260040160405180910390fd5b610c1d878787611c1d565b15610c3b5760405163920cadb560e01b815260040160405180910390fd5b600087815260066020908152604080832081516060810183523381528084018b81528184018b81528354600180820186559488528688209351600390910290930180546001600160a01b0319166001600160a01b03948516178155915193820193909355915160029092019190915591860151905191169034908381818185875af1925050503d8060008114610ced576040519150601f19603f3d011682016040523d82523d6000602084013e610cf2565b606091505b5050905080610d145760405163f285722d60e01b815260040160405180910390fd5b60408051898152336020820152908101889052606081018790524260808201527f8145f5f7785888577f4b907341639304ff8a5ad886ca425f513abe27b44285659060a00160405180910390a15050505050505050565b60606005805480602002602001604051908101604052809291908181526020016000905b828210156111625760008481526020908190206040805161014081018252600a86029092018054835260018101546001600160a01b03169383019390935260028301805492939291840191610de3906123a3565b80601f0160208091040260200160405190810160405280929190818152602001828054610e0f906123a3565b8015610e5c5780601f10610e3157610100808354040283529160200191610e5c565b820191906000526020600020905b815481529060010190602001808311610e3f57829003601f168201915b50505050508152602001600382018054610e75906123a3565b80601f0160208091040260200160405190810160405280929190818152602001828054610ea1906123a3565b8015610eee5780601f10610ec357610100808354040283529160200191610eee565b820191906000526020600020905b815481529060010190602001808311610ed157829003601f168201915b50505050508152602001600482018054610f07906123a3565b80601f0160208091040260200160405190810160405280929190818152602001828054610f33906123a3565b8015610f805780601f10610f5557610100808354040283529160200191610f80565b820191906000526020600020905b815481529060010190602001808311610f6357829003601f168201915b50505050508152602001600582018054610f99906123a3565b80601f0160208091040260200160405190810160405280929190818152602001828054610fc5906123a3565b80156110125780601f10610fe757610100808354040283529160200191611012565b820191906000526020600020905b815481529060010190602001808311610ff557829003601f168201915b5050505050815260200160068201805461102b906123a3565b80601f0160208091040260200160405190810160405280929190818152602001828054611057906123a3565b80156110a45780601f10611079576101008083540402835291602001916110a4565b820191906000526020600020905b81548152906001019060200180831161108757829003601f168201915b505050505081526020016007820180546110bd906123a3565b80601f01602080910402602001604051908101604052809291908181526020018280546110e9906123a3565b80156111365780601f1061110b57610100808354040283529160200191611136565b820191906000526020600020905b81548152906001019060200180831161111957829003601f168201915b505050505081526020016008820154815260200160098201548152505081526020019060010190610d8f565b50505050905090565b6001546001600160a01b0316331461119657604051631c10506d60e11b815260040160405180910390fd5b6001546040516000916001600160a01b03169047908381818185875af1925050503d80600081146111e3576040519150601f19603f3d011682016040523d82523d6000602084013e6111e8565b606091505b505090508061120a5760405163f285722d60e01b815260040160405180910390fd5b50565b6001546001600160a01b0316331461123857604051631c10506d60e11b815260040160405180910390fd5b600255565b606081600354811061126257604051632555990360e01b815260040160405180910390fd5b600083815260066020908152604080832080548251818502810185019093528083529193909284015b828210156112e0576000848152602090819020604080516060810182526003860290920180546001600160a01b031683526001808201548486015260029091015491830191909152908352909201910161128b565b50505050915050919050565b6004805460008581526007602090815260408083208151608081018352858152338185019081529281018981526060820189905282546001808201855593875295859020825196909802909701948555915190840180546001600160a01b0319166001600160a01b03909216919091179055935180519394936113759260028501920190611d6d565b50606091909101516003909101556004805490600061139383612446565b91905055507f3ae41d64ad75de7c084d5e7adbf2673feeec8ebbb58adea2128c415ad24c7c568185338686426040516113d196959493929190612461565b60405180910390a150505050565b60008060006113ec61141c565b90925090506000826113ff83600a612589565b6114099087612427565b6114139190612405565b95945050505050565b6000805460408051633fabe5a360e21b8152905183926001600160a01b0316918391839163feaf968c9160048083019260a09291908290030181865afa15801561146a573d6000803e3d6000fd5b505050506040513d601f19601f8201168201806040525081019061148e91906125b4565b5050509150506000826001600160a01b031663313ce5676040518163ffffffff1660e01b8152600401602060405180830381865afa1580156114d4573d6000803e3d6000fd5b505050506040513d601f19601f820116820180604052508101906114f89190612604565b919560ff90921694509092505050565b600254341461152a576040516319e7970560e21b815260040160405180910390fd5b60035460408051610140810182528281523360208083019182529282018c8152606083018c9052608083018b905260a083018a905260c0830189905260e08301889052610100830187905261012083018690526005805460018101825560009190915283517f036b6384b5eca791c62761152d0c79bb0604c104a5fb6f4eb0703f3154bb3db0600a90920291820190815592517f036b6384b5eca791c62761152d0c79bb0604c104a5fb6f4eb0703f3154bb3db1820180546001600160a01b0319166001600160a01b039092169190911790559051805193948594611635937f036b6384b5eca791c62761152d0c79bb0604c104a5fb6f4eb0703f3154bb3db2019290910190611d6d565b5060608201518051611651916003840191602090910190611d6d565b506080820151805161166d916004840191602090910190611d6d565b5060a08201518051611689916005840191602090910190611d6d565b5060c082015180516116a5916006840191602090910190611d6d565b5060e082015180516116c1916007840191602090910190611d6d565b50610100820151600882015561012090910151600990910155600380549060006116ea83612446565b91905055507fa0c4bfdadb448904df95d75b6b9a5559d01fd1e5dcabf5b10f6c358eecfde4c782338c8c8c8c8c8c8c8c426040516117329b9a99989796959493929190612627565b60405180910390a150505050505050505050565b606081600454811061176b576040516397ee35b960e01b815260040160405180910390fd5b600083815260076020908152604080832080548251818502810185019093528083529193909284015b828210156112e057600084815260209081902060408051608081018252600486029092018054835260018101546001600160a01b031693830193909352600283018054929392918401916117e7906123a3565b80601f0160208091040260200160405190810160405280929190818152602001828054611813906123a3565b80156118605780601f1061183557610100808354040283529160200191611860565b820191906000526020600020905b81548152906001019060200180831161184357829003601f168201915b5050505050815260200160038201548152505081526020019060010190611794565b6005818154811061189257600080fd5b60009182526020909120600a90910201805460018201546002830180549294506001600160a01b0390911692916118c8906123a3565b80601f01602080910402602001604051908101604052809291908181526020018280546118f4906123a3565b80156119415780601f1061191657610100808354040283529160200191611941565b820191906000526020600020905b81548152906001019060200180831161192457829003601f168201915b505050505090806003018054611956906123a3565b80601f0160208091040260200160405190810160405280929190818152602001828054611982906123a3565b80156119cf5780601f106119a4576101008083540402835291602001916119cf565b820191906000526020600020905b8154815290600101906020018083116119b257829003601f168201915b5050505050908060040180546119e4906123a3565b80601f0160208091040260200160405190810160405280929190818152602001828054611a10906123a3565b8015611a5d5780601f10611a3257610100808354040283529160200191611a5d565b820191906000526020600020905b815481529060010190602001808311611a4057829003601f168201915b505050505090806005018054611a72906123a3565b80601f0160208091040260200160405190810160405280929190818152602001828054611a9e906123a3565b8015611aeb5780601f10611ac057610100808354040283529160200191611aeb565b820191906000526020600020905b815481529060010190602001808311611ace57829003601f168201915b505050505090806006018054611b00906123a3565b80601f0160208091040260200160405190810160405280929190818152602001828054611b2c906123a3565b8015611b795780601f10611b4e57610100808354040283529160200191611b79565b820191906000526020600020905b815481529060010190602001808311611b5c57829003601f168201915b505050505090806007018054611b8e906123a3565b80601f0160208091040260200160405190810160405280929190818152602001828054611bba906123a3565b8015611c075780601f10611bdc57610100808354040283529160200191611c07565b820191906000526020600020905b815481529060010190602001808311611bea57829003601f168201915b505050505090806008015490806009015490508a565b600083815260066020908152604080832080548251818502810185019093528083528493849084015b82821015611c9b576000848152602090819020604080516060810182526003860290920180546001600160a01b0316835260018082015484860152600290910154918301919091529083529092019101611c46565b50505050905060005b8151811015611d5f57818181518110611cbf57611cbf61238d565b6020026020010151602001518510158015611cf75750818181518110611ce757611ce761238d565b6020026020010151604001518511155b80611d475750818181518110611d0f57611d0f61238d565b6020026020010151602001518410158015611d475750818181518110611d3757611d3761238d565b6020026020010151604001518411155b15611d5757600192505050611d66565b600101611ca4565b5060009150505b9392505050565b828054611d79906123a3565b90600052602060002090601f016020900481019282611d9b5760008555611de1565b82601f10611db457805160ff1916838001178555611de1565b82800160010185558215611de1579182015b82811115611de1578251825591602001919060010190611dc6565b50611ded929150611df1565b5090565b5b80821115611ded5760008155600101611df2565b600060208284031215611e1857600080fd5b5035919050565b6000815180845260005b81811015611e4557602081850181015186830182015201611e29565b81811115611e57576000602083870101525b50601f01601f19169290920160200192915050565b6000610140825184526020830151611e8f60208601826001600160a01b03169052565b506040830151816040860152611ea782860182611e1f565b91505060608301518482036060860152611ec18282611e1f565b91505060808301518482036080860152611edb8282611e1f565b91505060a083015184820360a0860152611ef58282611e1f565b91505060c083015184820360c0860152611f0f8282611e1f565b91505060e083015184820360e0860152611f298282611e1f565b6101008581015190870152610120948501519490950193909352509192915050565b602081526000611d666020830184611e6c565b600080600060608486031215611f7357600080fd5b505081359360208301359350604090920135919050565b6000602080830181845280855180835260408601915060408160051b870101925083870160005b82811015611fdf57603f19888603018452611fcd858351611e6c565b94509285019290850190600101611fb1565b5092979650505050505050565b602080825282518282018190526000919060409081850190868401855b8281101561204157815180516001600160a01b0316855286810151878601528501518585015260609093019290850190600101612009565b5091979650505050505050565b634e487b7160e01b600052604160045260246000fd5b600082601f83011261207557600080fd5b813567ffffffffffffffff808211156120905761209061204e565b604051601f8301601f19908116603f011681019082821181831017156120b8576120b861204e565b816040528381528660208588010111156120d157600080fd5b836020870160208301376000602085830101528094505050505092915050565b60008060006060848603121561210657600080fd5b83359250602084013567ffffffffffffffff81111561212457600080fd5b61213086828701612064565b925050604084013590509250925092565b600080600080600080600080610100898b03121561215e57600080fd5b883567ffffffffffffffff8082111561217657600080fd5b6121828c838d01612064565b995060208b013591508082111561219857600080fd5b6121a48c838d01612064565b985060408b01359150808211156121ba57600080fd5b6121c68c838d01612064565b975060608b01359150808211156121dc57600080fd5b6121e88c838d01612064565b965060808b01359150808211156121fe57600080fd5b61220a8c838d01612064565b955060a08b013591508082111561222057600080fd5b5061222d8b828c01612064565b93505060c0890135915060e089013590509295985092959890939650565b60006020808301818452808551808352604092508286019150828160051b87010184880160005b838110156122d457888303603f19018552815180518452878101516001600160a01b031688850152868101516080888601819052906122b382870182611e1f565b60609384015196909301959095525094870194925090860190600101612272565b509098975050505050505050565b8a81526001600160a01b038a1660208201526101406040820181905260009061230d8382018c611e1f565b90508281036060840152612321818b611e1f565b90508281036080840152612335818a611e1f565b905082810360a08401526123498189611e1f565b905082810360c084015261235d8188611e1f565b905082810360e08401526123718187611e1f565b6101008401959095525050610120015298975050505050505050565b634e487b7160e01b600052603260045260246000fd5b600181811c908216806123b757607f821691505b6020821081141561078357634e487b7160e01b600052602260045260246000fd5b634e487b7160e01b600052601160045260246000fd5b600082821015612400576124006123d8565b500390565b60008261242257634e487b7160e01b600052601260045260246000fd5b500490565b6000816000190483118215151615612441576124416123d8565b500290565b600060001982141561245a5761245a6123d8565b5060010190565b86815285602082015260018060a01b038516604082015260c06060820152600061248e60c0830186611e1f565b60808301949094525060a00152949350505050565b600181815b808511156124de5781600019048211156124c4576124c46123d8565b808516156124d157918102915b93841c93908002906124a8565b509250929050565b6000826124f557506001612583565b8161250257506000612583565b816001811461251857600281146125225761253e565b6001915050612583565b60ff841115612533576125336123d8565b50506001821b612583565b5060208310610133831016604e8410600b8410161715612561575081810a612583565b61256b83836124a3565b806000190482111561257f5761257f6123d8565b0290505b92915050565b6000611d6683836124e6565b805169ffffffffffffffffffff811681146125af57600080fd5b919050565b600080600080600060a086880312156125cc57600080fd5b6125d586612595565b94506020860151935060408601519250606086015191506125f860808701612595565b90509295509295909350565b60006020828403121561261657600080fd5b815160ff81168114611d6657600080fd5b8b81526001600160a01b038b166020820152610160604082018190526000906126528382018d611e1f565b90508281036060840152612666818c611e1f565b9050828103608084015261267a818b611e1f565b905082810360a084015261268e818a611e1f565b905082810360c08401526126a28189611e1f565b905082810360e08401526126b68188611e1f565b6101008401969096525050610120810192909252610140909101529897505050505050505056fea26469706673582212200d0e3f5a3ee07883b16d54cf5fb5ab9f732e382df5d837b03680e70de2a080d864736f6c634300080a0033",
  "linkReferences": {},
  "deployedLinkReferences": {}
}